:020000040800F2
:1000000000800120E11E0008C5030008C7030008A6
:10001000C9030008CB030008CD030008000000005E
:10002000000000000000000000000000CF030008F6
:10003000D103000800000000D3030008D503000826
:10004000311F0008311F0008311F0008311F000850
:10005000311F0008311F0008311F0008311F000840
:10006000311F0008311F0008311F0008311F000830
:10007000311F0008311F0008311F0008311F000820
:10008000311F0008311F0008311F0008311F000810
:10009000311F0008311F0008311F0008311F000800
:1000A000311F0008311F0008311F0008311F0008F0
:1000B000311F0008311F0008311F0008311F0008E0
:1000C000311F0008311F0008311F0008311F0008D0
:1000D000311F0008311F0008311F0008311F0008C0
:1000E000311F0008311F0008311F0008311F0008B0
:1000F000311F0008311F0008311F0008311F0008A0
:10010000311F0008311F0008311F0008311F00088F
:10011000311F0008311F0008311F0008311F00087F
:10012000311F0008311F0008311F0008311F00086F
:10013000311F0008311F0008311F0008311F00085F
:10014000311F0008311F0008311F0008311F00084F
:10015000311F0008311F0008311F0008311F00083F
:10016000311F0008311F0008311F0008311F00082F
:10017000311F0008311F0008311F00080000000077
:08018000311F0008311F0008C7
:1001880053B94AB9002908BF00281CBF4FF0FF31F6
:100198004FF0FF3000F00CB8ADF1080C6DE904CE5B
:1001A80001F0F0FEDDF804E0DDE9022304B0704759
:1001B800704700BF0348044B834202D0034B03B18E
:1001C80018477047100000201000002000000000B1
:1001D8000548064B1B1AD90F01EBA301491002D0A1
:1001E800034B03B11847704710000020100000208F
:1001F8000000000010B5064C237843B9FFF7DAFF7A
:10020800044B13B10448AFF300800123237010BDE1
:1002180010000020000000004822000808B5054B27
:100228001BB105490548AFF30080BDE80840FFF75A
:10023800CFBF00BF000000001400002048220008C3
:1002480010B58AB00024059406940794089409947C
:10025800214BDA6C42F00402DA64DA6C02F0040230
:100268000192019ADA6C42F08002DA64DA6C02F0E8
:1002780080020292029ADA6C42F00102DA64DA6CC5
:1002880002F001020392039ADA6C42F00202DA6485
:10029800DB6C03F002030493049B224620214FF0F9
:1002A800904001F047FD4FF4005305934FF40413B9
:1002B8000693079405A9094801F03CFC20230593FF
:1002C800012306930794089405A94FF0904001F084
:1002D80031FC0AB010BD00BF001002400008004801
:1002E80072B6FEE708B50B480B4B03604FF4E133D9
:1002F800436000238360C36003610C224261836111
:10030800C3610362436200F05AFB00B908BDFFF7FE
:10031800E7FF00BF2C0000200044004000B597B064
:100328004422002105A801F000FE00230093019358
:100338000293039304934FF4007001F011FD20BB66
:10034800022305934FF480720892102209920F93AA
:100358001093012211920A221292072213921493E7
:10036800159305A800F062FC88B90F2300930323B6
:10037800019300230293039304930421684600F039
:1003880063FF30B917B05DF804FBFFF7A9FFFFF76B
:10039800A7FFFFF7A5FF08B500F06AFBFFF7BEFF50
:1003A800FFF74EFFFFF79EFF20214FF0904001F02E
:1003B800C6FC4FF4FA7000F083FBF5E7FEE7FEE7B2
:1003C800FEE7FEE7FEE770477047704708B500F0A4
:1003D80065FB08BD82B00A4B1A6E42F001021A662C
:1003E8001A6E02F001020092009A9A6D42F0805251
:1003F8009A659B6D03F080530193019B02B070478F
:100408000010024010B5AAB004460021259126919B
:10041800279128912991882203A801F086FD226856
:10042800184B9A4201D02AB010BD0223039303A8A7
:1004380001F056F910BB144B9A6D42F400329A65DC
:100448009A6D02F400320192019ADA6C42F00102CC
:10045800DA64DB6C03F001030293029B0C232593FF
:100468000223269300232793032328930723299302
:1004780025A94FF0904001F05DFBD4E7FFF730FF6E
:10048800D9E700BF004400400010024010B5044600
:10049800016883680269134342691343C2691343BD
:1004A80008688E4A02401A430A602268536823F497
:1004B8004053E1680B435360A1692268884B9A4214
:1004C80001D0236A1943936823F430630B43936084
:1004D8002368844A934210D0834A934221D0834AA6
:1004E800934237D0824A93425CD0824A93426BD07F
:1004F8007B4A93427DD010223AE002F55842D2F866
:10050800882002F00302032A09D8DFE802F0020477
:10051800870601222CE004222AE0082228E0102283
:1005280026E002F5E632D2F8882002F00C020C2A06
:100538000ED8DFE802F0070D0D0D090D0D0D750D34
:100548000D0D0B00002213E0042211E008220FE039
:1005580010220DE002F5E432D2F8882002F03002D1
:10056800202A5FD01AD8002A5ED0102A5ED1042231
:100578005B498B4276D0E069B0F5004F00F0A3806C
:10058800082A00F20E81DFE812F0DD00F300DB003C
:100598000C01F6000C010C010C01F900302A47D1BE
:1005A8000822E5E702F5E232D2F8882002F0C0021C
:1005B800802A3FD004D8FAB3402A3FD10422D7E793
:1005C800C02A3DD10822D3E702F5E032D2F88820CC
:1005D80002F44072B2F5007F34D005D8A2B3B2F568
:1005E800807F33D10422C3E7B2F5407F30D108229F
:1005F800BEE702F5C832D2F8882002F44062B2F5AC
:10060800006F27D005D83AB3B2F5806F26D10422FF
:10061800AEE7B2F5406F23D10822A9E70222A7E787
:100628000222A5E70222A3E70022A1E710229FE702
:1006380010229DE702229BE7002299E7102297E704
:10064800102295E7022293E7002291E710228FE714
:1006580010228DE702228BE7002289E7102287E724
:10066800102285E7082A00F28C80DFE802F0088A69
:100678002A8A278A8A8A05004FF4004003E000F09E
:10068800ADFE00287FD0626802EB420383427CD82B
:10069800B0EB023F7BD8010E00025308C0184FF0A0
:1006A800000341F10001FFF76BFDA0F54072124B0A
:1006B8009A426ED82368D860002055E000F05CFAB2
:1006C800DFE70E48DFE7082A65D8DFE802F01933CC
:1006D8000564366464641D00084815E0F369FFEF9B
:1006E80000800040003801400044004000480040BD
:1006F800004C004000500040FFFC0F000024F400B4
:1007080000F06CFE002848D06268530803EB4003F1
:10071800B3FBF2F3A3F110014FF6EF7291423ED80A
:100728009AB222F00F02C3F3420313432268D36044
:10073800002019E000F064FEE4E700F01DFAE1E7AC
:100748001B4802E000F04AFE68B3636800EB530000
:10075800B0FBF3F0A0F110024FF6EF739A4224D8E1
:10076800236880B2D860002000236366A36610BDAA
:1007780000F046FEE8E700F0FFF9E5E74FF4004037
:10078800E3E70120F0E70020EEE70120ECE7012095
:10079800EAE70120E8E70120E6E70020E4E7012096
:1007A800E2E70120E0E70020DEE70120DCE700BF08
:1007B8000024F400436A13F0010F06D0026853685E
:1007C80023F40033816A0B435360436A13F0020F2A
:1007D80006D00268536823F48033C16A0B43536020
:1007E800436A13F0040F06D00268536823F4802389
:1007F800016B0B435360436A13F0080F06D002687D
:10080800536823F40043416B0B435360436A13F06E
:10081800100F06D00268936823F48053816B0B4352
:100828009360436A13F0200F06D00268936823F49C
:100838000053C16B0B439360436A13F0400F0AD017
:100848000268536823F48013016C0B435360036CF4
:10085800B3F5801F0BD0436A13F0800F06D00268EF
:10086800536823F40023816C0B435360704702687C
:10087800536823F4C003416C0B435360EBE72DE945
:10088800F84305460F4616469946DDF820802B6842
:10089800DC6937EA04040CBF01240024B44253D1B4
:1008A800B8F1FF3FF3D000F005F9A0EB090040458F
:1008B8002DD8B8F1000F2AD02B681A6812F0040F4F
:1008C800E5D0DA6912F4006FE1D04FF400621A62E1
:1008D8002A6852E8003F23F4D07342E80031002927
:1008E800F6D12A6802F1080353E8003F23F0010318
:1008F800083242E800310029F3D12023AB67EB67C7
:10090800C5F88030002385F8743003201DE02A687C
:1009180052E8003F23F4D07342E800310029F6D1B1
:100928002A6802F1080353E8003F23F00103083264
:1009380042E800310029F3D12023AB67EB6700239D
:1009480085F87430032000E00020BDE8F88330B556
:1009580083B004460023C0F8803000F0ABF80546A9
:100968002268126812F0080F0DD123681B6813F073
:10097800040F16D12023A367E3670020206684F8BC
:10098800740003B030BD6FF07E430093034600222D
:100998004FF400112046FFF772FF0028E5D003202E
:1009A800EFE76FF07E4300932B4600224FF480015F
:1009B8002046FFF764FF0028DCD00320E1E768B396
:1009C80010B50446836F03B32423A3672268136812
:1009D80023F0010313602046FFF758FD012813D0C8
:1009E800636ABBB92268536823F490435360226852
:1009F800936823F02A0393602268136843F0010385
:100A080013602046FFF7A3FF10BD80F87430FFF78E
:100A1800F9FCD9E72046FFF7CDFEE3E70120704750
:100A2800104B1B780BB90120704710B504464FF4E2
:100A38007A70B0FBF3F30C4A1068B0FBF3F001F0E6
:100A48002DFA68B90F2C01D901200AE000222146AD
:100A58004FF0FF3001F012FA044B1C60002000E058
:100A6800012010BD00000020080000200400002024
:100A780010B5094A136843F480731360032001F02A
:100A8800EBF90020FFF7CCFF10B10124204610BD80
:100A98000446FFF79FFCF9E700200240034B1B7850
:100AA800034A11680B441360704700BF0000002020
:100AB800B0000020014B1868704700BFB00000204C
:100AC80038B50446FFF7F6FF0546B4F1FF3F02D0FC
:100AD800044B1B781C44FFF7EDFF401BA042FAD3E0
:100AE80038BD00BF0000002030B583B00446204B5D
:100AF8009B6D13F0805F0BD001F02AF9B0F5007FF1
:100B080017D0802C1FD82DD0702C2DD000211BE0A1
:100B1800174DAB6D43F08053AB65AB6D03F080535D
:100B28000193019B01F014F9AB6D23F08053AB6581
:100B3800E4E7802C03D9A02C03D9022104E000218A
:100B480002E0012100E003210A4A136823F00703A9
:100B58000B431360136803F007038B4206D1002090
:100B680003B030BD0221EFE70121EDE70120F7E7EF
:100B78000010024000200240284A9368D26802F020
:100B8800030213F00C030AD00C2B06D0042B1FD041
:100B9800082B20D00020024610E0012AF6D11F4A77
:100BA800126812F0080F0CD11C4AD2F89420C2F334
:100BB80003221B4951F8222043B100200C2B0DD0F1
:100BC8007047164A1268C2F30312F2E71046F5E7B7
:100BD80014480022F2E714480022EFE70F4BDB68C5
:100BE80003F00303022B16D0032B00D10E4A0B4946
:100BF800CB68C3F302130133C868C0F3062002FBB5
:100C080000F0B0FBF3F0CB68C3F3416301335B0042
:100C1800B0FBF3F0D4E7034AE9E700BF0010024055
:100C2800602200080024F40000127A00002800F076
:100C3800F182F0B583B00446964B9D6805F00C052B
:100C4800DE6806F00306036813F0100F5AD0E5B10A
:100C58000C2D18D0A369002B00F0BB808D4A1368B7
:100C680043F001031360FFF725FF0746894B1B6814
:100C780013F0020F40F09A80FFF71CFFC01B0228F8
:100C8800F4D90320D1E2012EE4D1824B1B6813F082
:100C9800020F03D0A369002B00F0BE82206A7D4BAF
:100CA8001B6813F0080F5BD07A4B1B6803F0F00346
:100CB80098425CD8774B1A6842F008021A601A68A2
:100CC80022F0F002216A0A431A605A6822F47F422D
:100CD800E16942EA01225A60002D60D0FFF74CFF1B
:100CE8006C4B9B68C3F303136B4AD35C03F01F037D
:100CF800D8406A4B18606A4B1868FFF791FE0028C5
:100D080040F09382236813F0010F00F08180082DD2
:100D180075D00C2D71D06368B3F5803F00F09780D3
:100D2800B3F5A02F00F099805A4B1A6822F480324C
:100D38001A601A6822F480221A606368002B00F097
:100D48009980FFF7B7FE0746524B1B6813F4003F24
:100D58005ED1FFF7AFFEC01B6428F5D9032064E21B
:100D68004C4BD3F894301B0903F0F003A0E7FFF7CE
:100D7800BBFE002840F05282464B1A6842F0080237
:100D88001A601A6822F0F002216A0A431A605A6847
:100D980022F47F42E16942EA01225A609EE7206A12
:100DA800FFF7A2FE002899D001203EE2394B1A68CD
:100DB80042F008021A601A6822F0F002216A0A4317
:100DC8001A605A6822F47F42E16942EA01225A60B5
:100DD80098E7304A136823F001031360FFF76AFEAF
:100DE80007462C4B1B6813F0020F8BD0FFF762FEEF
:100DF800C01B0228F5D9032017E2032E8BD1254BFF
:100E08001B6813F4003F03D06368002B00F00882CE
:100E1800236813F0020F58D0042D45D00C2D41D073
:100E2800E368002B77D01B4A136843F48073136080
:100E3800FFF740FE0646174B1B6813F4806F61D11D
:100E4800FFF738FE801B0228F5D90320EDE1114A8F
:100E5800136843F4803313606FE703F18043A3F50D
:100E68003C331A6842F480221A601A6842F48032CD
:100E78001A6062E7FFF71EFE0746064B1B6813F46D
:100E8800003FC5D0FFF716FEC01B6428F5D9032024
:100E9800CBE100BF001002409822000808000020A3
:100EA80004000020022EBBD1A34B1B6813F4806FF3
:100EB80003D0E368002B00F0B5819F4A536823F004
:100EC800F853216943EA01635360236813F0080F5C
:100ED8004CD063699BB3984AD2F8943043F001032D
:100EE800C2F89430FFF7E6FD0646934BD3F89430EA
:100EF80013F0020F3AD1FFF7DDFD801B0228F4D969
:100F0800032092E18C4A536823F0F853216943EA9D
:100F180001635360D9E7884A136823F48073136028
:100F2800FFF7C8FD0646844B1B6813F4806FCCD0CE
:100F3800FFF7C0FD801B0228F5D9032075E17E4A22
:100F4800D2F8943023F00103C2F89430FFF7B2FDD1
:100F58000646794BD3F8943013F0020F06D0FFF70A
:100F6800A9FD801B0228F4D903205EE1236813F051
:100F7800040F7AD0704B9B6D13F0805F36D16E4BA7
:100F88009A6D42F080529A659B6D03F080530193ED
:100F9800019B0126694B1B6813F4807F28D0A36846
:100FA800012B39D0052B3FD0634BD3F8902022F08A
:100FB8000102C3F89020D3F8902022F00402C3F86D
:100FC8009020A368002B3DD0FFF774FD07465A4BCD
:100FD800D3F8903013F0020F46D1FFF76BFDC01B1A
:100FE80041F288339842F2D903201EE10026D1E766
:100FF800524A136843F480731360FFF75BFD07469A
:101008004E4B1B6813F4807FC9D1FFF753FDC01BFB
:101018000228F5D9032008E1474AD2F8903043F076
:101028000103C2F89030CCE7434BD3F8902042F04C
:101038000402C3F89020D3F8902042F00102C3F8CC
:101048009020BEE7FFF736FD07463B4BD3F89030BC
:1010580013F0020F08D0FFF72DFDC01B41F28833B3
:101068009842F2D90320E0E0EEB9A36A002B00F021
:10107800DB80022B1DD00C2D00F0DD802E4A13687A
:1010880023F080731360FFF715FD04462A4B1B6895
:1010980013F0007F00F0B780FFF70CFD001B02285B
:1010A800F4D90320C1E0244A936D23F0805393655B
:1010B800DBE7214BDB6803F00301E26A91420FD0C2
:1010C8000C2D00F0B4801C4B1B6813F0806F40F0AF
:1010D800B080194B1B6813F0805F31D00120A4E069
:1010E80003F07002216B0139B2EB011FE8D103F460
:1010F800FE42616BB2EB012FE2D103F40031A26B27
:10110800073A18BF01229142DAD103F4C001E26B19
:101118005208013AB1EB425FD2D103F0C063226CAE
:101128005208013AB3EB426FCAD1034B1B6813F064
:10113800007F4ED0002078E0001002400070004090
:101148003E4A136823F080731360FFF7B3FC05462B
:101158003A4B1B6813F0007F06D0FFF7ABFC401B2F
:101168000228F5D9032060E0344AD368344919408D
:10117800E36A206B013843EA0013606B43EA0023FB
:10118800E06B4008013843EA4053206C40080138BE
:1011980043EA4063A06B000943EA40431943D16026
:1011A800136843F080731360D36843F08073D3608F
:1011B800FFF780FC0446214B1B6813F0007F06D123
:1011C800FFF778FC001B0228F5D903202DE000204A
:1011D8002BE01A4B1A6842F080721A60DA6842F003
:1011E8008072DA60FFF766FC0446144B1B6813F044
:1011F800007F06D1FFF75EFC031B022BF5D9032005
:1012080013E0002011E00D4AD1680E4B0B40D3606B
:1012180000200AE001207047012006E0012004E0D8
:10122800012002E0012000E0002003B0F0BD012011
:10123800FBE70120F9E70120F7E700BF00100240B3
:101248008C809DF9FCFFEEFE002800F0AF8070B5A1
:101258000D460446594B1B6803F007038B420BD21B
:10126800564A136823F007030B431360136803F00F
:1012780007038B4240F09C80236813F0020F0CD0C8
:10128800A2684F4B9B6803F0F0039A4205D94C497A
:101298008B6823F0F0031A438A60236813F0010F68
:1012A80039D06368032B09D0022B26D063BB444A8C
:1012B800126812F0020F06D1012076E0404A126847
:1012C80012F0007F76D03E498A6822F00302134369
:1012D8008B60FFF7EFFB0646394B9B6803F00C0366
:1012E8006268B3EB820F16D0FFF7E4FB801B41F274
:1012F80088339842F0D9032057E0314A126812F433
:10130800003FE0D1012050E02D4A126812F4806FAE
:10131800D9D1012049E0236813F0020F0CD0A2684C
:10132800274B9B6803F0F0039A4205D224498B6847
:1013380023F0F0031A438A60204B1B6803F007036D
:10134800AB420AD91D4A136823F007032B431360E5
:10135800136803F00703AB422ED1236813F0040F80
:1013680006D0174A936823F4E063E1680B4393605F
:10137800236813F0080F07D0114A936823F46053C9
:10138800216943EAC1039360FFF7F6FB0C4B9B68A6
:10139800C3F303130B4AD35C03F01F03D8400A4B73
:1013A80018600A4B1868FFF73BFB70BD01207047B7
:1013B8000120FAE70120F8E70120F6E700200240C3
:1013C80000100240982200080800002004000020B5
:1013D800014B1868704700BF0800002008B5FFF7E8
:1013E800F7FF054B9B68C3F30223044AD35C03F061
:1013F8001F03D84008BD00BF00100240902200081B
:1014080008B5FFF7E5FF054B9B68C3F3C223044A01
:10141800D35C03F01F03D84008BD00BF0010024092
:1014280090220008F8B504460D46594BDB6813F0C6
:10143800030F17D0564BDB6803F00303026893428F
:1014480001D0012616E0002A00F09F80504BDB688F
:10145800C3F3021301334268934201D0012609E025
:1014680000261BE00368022B58D0032B5DD0012B0C
:1014780002D001263046F8BD454A126812F0020F24
:101488005FD04348C26822F073026168013943EAB9
:1014980001131343C3600026002EEBD13C4A1368A6
:1014A80023F080631360FFF705FB0746384B1B6882
:1014B80013F0006F05D0FFF7FDFAC31B022BF5D917
:1014C8000326002ED6D1002D3DD131490B6923F4D6
:1014D8001F3323F44073A068E2681209520442EAF9
:1014E800002213430B612A4A136843F08063136098
:1014F800FFF7E0FA0546264B1B6813F0006F05D18D
:10150800FFF7D8FA401B0228F5D90326002EB1D1DF
:101518001F4A1369A1690B431361ABE71C4A1268A0
:1015280012F4806FADD10126A4E7194A126812F4AB
:10153800003FA6D1164A126812F4802FA1D10126C5
:1015480098E70126A8E7012D0FD01148026922F07B
:10155800C06222F4FE42A16863695B08013B5B0636
:1015680043EA01231A430261BDE70948026922F4EC
:10157800C00222F4FE42A16823695B08013B5B05B7
:1015880043EA01231A430261ADE7012672E700BF6F
:1015980000100240F8B504460D46504BDB6813F0C6
:1015A800030F17D04D4BDB6803F003030268934227
:1015B80001D0012616E0002A00F08D80474BDB6839
:1015C800C3F3021301334268934201D0012609E0B4
:1015D80000261BE00368022B58D0032B5DD0012B9B
:1015E80002D001263046F8BD3C4A126812F0020FBC
:1015F8005FD03A48C26822F073026168013943EA51
:1016080001131343C3600026002EEBD1334A13683D
:1016180023F080531360FFF74DFA07462F4B1B68E2
:1016280013F0005F05D0FFF745FAC31B022BF5D96D
:101638000326002ED6D1002D3DD128494B6923F42D
:101648001F3323F44073A068E2681209520442EA87
:10165800002213434B61214A136843F080531360FF
:10166800FFF728FA05461D4B1B6813F0005F05D1EC
:10167800FFF720FA401B0228F5D90326002EB1D126
:10168800164A536961690B435361ABE7134A126801
:1016980012F4806FADD10126A4E7104A126812F443
:1016A800003FA6D10D4A126812F4802FA1D101265D
:1016B80098E70126A8E70948426922F0C06222F4A7
:1016C800FE42A16823695B08013B5B0643EA0123EC
:1016D8001A434261BFE7012684E700BF00100240B9
:1016E8002DE9F04182B00446036813F4006F33D04B
:1016F800436EB3F5000F1FD00CD823B3B3F5800F9A
:1017080005D100212030FFF745FF064620E00127DC
:101718003E4623E0B3F5400F0BD10026604AD2F8CD
:10172800883023F44003616E0B43C2F888300027E9
:1017380014E001273E4611E0594AD36843F4803348
:10174800D3600026EAE700210430FFF76BFE064667
:10175800002EE3D0374601E000273E46236813F405
:10176800805F30D0A36EB3F1007F1FD00DD81BB3BC
:10177800B3F1807F06D1002104F12000FFF70AFFB2
:10178800064605E001273E461DE0B3F1407F0AD139
:10179800C6B9434AD2F8883023F04073A16E0B4390
:1017A800C2F888300FE001273E460CE03C4AD36877
:1017B80043F48033D360EBE70021201DFFF732FEAE
:1017C8000646E5E73746236813F4003F71D0344BEB
:1017D8009B6D13F0805F4ED1314B9A6D42F0805271
:1017E8009A659B6D03F080530193019B4FF00108AC
:1017F8002C4A136843F480731360FFF75BF90546BE
:10180800284B1B6813F4807F05D1FFF753F9401B61
:101818000228F5D90326002E46D1214BD3F8903063
:1018280013F4407316D0D4F884209A4212D01C4A7C
:10183800D2F8903023F44073D2F8901041F48031FC
:10184800C2F89010D2F8901021F48031C2F89010AC
:10185800C2F8903013F0010F10D1002E40F027810C
:101868000F4AD2F8903023F44073D4F884100B4315
:10187800C2F8903019E04FF00008B9E7FFF71AF9FD
:101888000546074BD3F8903013F0020FE5D1FFF768
:1018980011F9401B41F288339842F2D90326DCE75C
:1018A80000100240007000403746B8F1000F40F0C9
:1018B8000081236813F0010F08D09D4AD2F88830C0
:1018C80023F00303A16B0B43C2F88830236813F09D
:1018D800020F08D0964AD2F8883023F00C03E16B47
:1018E8000B43C2F88830236813F0040F08D0904ADD
:1018F800D2F8883023F03003216C0B43C2F88830CB
:10190800236813F0080F08D0894AD2F8883023F0EA
:10191800C003616C0B43C2F88830236813F0100FC2
:1019280008D0834AD2F8883023F44073A16C0B4363
:10193800C2F88830236813F0200F08D07C4AD2F808
:10194800883023F44063E16C0B43C2F88830236885
:1019580013F4007F08D0764AD2F8883023F4402365
:10196800E16D0B43C2F88830236813F4806F08D008
:101978006F4AD2F8883023F44013216E0B43C2F823
:101988008830236813F0400F08D0694AD2F88830AD
:1019980023F44053216D0B43C2F88830236813F0B9
:1019A800800F08D0624AD2F8883023F44043616D32
:1019B8000B43C2F88830236813F4807F08D05C4A50
:1019C800D2F8883023F44033A16D0B43C2F8883035
:1019D800236813F4005F0FD0554AD2F8883023F0FB
:1019E8004063E16E0B43C2F88830E36EB3F1006FD9
:1019F80065D0B3F1806F67D0236813F4002F0FD040
:101A08004B4AD2F8883023F04063216F0B43C2F869
:101A18008830236FB3F1006F5ED0B3F1806F60D070
:101A2800236813F4802F0FD0414AD2F8883023F06E
:101A38004063616F0B43C2F88830636FB3F1006F86
:101A480057D0B3F1806F59D0236813F4804F0FD06B
:101A5800374AD2F8883023F04053A16F0B43C2F8BD
:101A68008830A36FB3F1805F50D0B3F1005F55D0D9
:101A7800236813F4004F08D02D4AD2F8883023F099
:101A88008043E16F0B43C2F88830236813F4803F2A
:101A980009D0274AD2F8883023F00043D4F88010C0
:101AA8000B43C2F88830384602B0BDE8F0813746AB
:101AB800FBE61F4A936D23F080539365F9E6D368DC
:101AC80043F48013D36097E70121201DFFF7AAFC98
:101AD800002891D007468FE7D36843F48013D3607A
:101AE8009EE70121201DFFF79DFC002898D007469E
:101AF80096E7D36843F48013D360A5E70121201D3E
:101B0800FFF790FC00289FD007469DE70221201D83
:101B1800FFF788FC0028ABD00746A9E7022104F1AB
:101B28002000FFF737FD0028A2D00746A0E700BF36
:101B380000100240F0B583B000236BE085685E00BA
:101B48000324B44025EA0405CC68B4402C438460DF
:101B5800456825EA0C054C68C4F300149C402C43E6
:101B6800446069E0C56A25EA0C05C4F3C0049C40DA
:101B78002C43C46266E0DD08083550F8254003F0C0
:101B8800070C4FEA8C0C4FF00F0E0EFA0CFE24EAED
:101B98000E0E0C6904FA0CF444EA0E0440F82540D1
:101BA80067E0062400E0002404FA0EF42C430CF14C
:101BB800020C5C4D45F82C405B4CA568D44325EAE3
:101BC80002064F6817F4801F01D042EA0506564DF9
:101BD800AE60ED6804EA05064F6817F4001F01D0EF
:101BE80042EA0506504DEE606D6804EA05064F6846
:101BF80017F4003F01D042EA05064B4D6E602D6890
:101C08002C404E6816F4803F01D042EA0504464A4B
:101C1800146001330A6832FA03F400F081804FF04F
:101C2800010C0CFA03FC1CEA0202F2D04C6804F026
:101C38000304013C012C81D94C6804F0030EBEF169
:101C4800030F8FD04C6804F00304032C0CD0C46835
:101C58005D004FF0030C0CFA05FC24EA0C0C8C68B0
:101C6800AC4044EA0C04C4604C6804F00304022C41
:101C780081D004684FEA430E4FF0030C0CFA0EFCB7
:101C880024EA0C0C4C6804F0030404FA0EF444EA49
:101C98000C0404604C6814F4403FBAD0234C256E01
:101CA80045F001052566246E04F001040194019CA9
:101CB8004FEA930C0CF102051A4C54F8255003F026
:101CC800030E4FEA8E0E0F2404FA0EF425EA0405DB
:101CD800B0F1904F3FF467AF154CA04216D004F511
:101CE8008064A04214D004F58064A04212D004F5A8
:101CF8008064A04210D004F58064A0420ED004F5A0
:101D08008064A0423FF44DAF07244DE701244BE720
:101D1800022449E7032447E7042445E7052443E769
:101D280003B0F0BD00000140000401400010024073
:101D3800000400480AB181617047816270474369B5
:101D480001EA030221EA030141EA02418161704785
:101D5800024B186800F4C060704700BF0070004074
:101D6800B0F5007F0FD01F4B1B6803F4C063B3F5B9
:101D7800806F34D01B4A136823F4C06343F4806334
:101D8800136000207047174B1B6803F4C063B3F55A
:101D9800007F20D0134A136823F4C06343F4007310
:101DA8001360114B1B68322202FB03F30F4AA2FB9C
:101DB80003239B0C013300E0013B0A4A526912F4E9
:101DC800806F01D0002BF7D1064B5B6913F4806F4D
:101DD80003D100207047002070470320704700207F
:101DE800704700BF007000400800002083DE1B43DE
:101DF800002808DB0901C9B200F1604000F5614024
:101E080080F80013704700F00F000901C9B2014BB8
:101E18001954704714ED00E000B500F00700C0F158
:101E2800070CBCF1040F28BF4FF0040C031D062B50
:101E38000FD9C31E4FF0FF3E0EFA0CF021EA000145
:101E480099400EFA03FE22EA0E0241EA02005DF80A
:101E580004FB0023EEE70000074AD36823F4E0639D
:101E68001B041B0C000200F4E060034343F0BF6353
:101E780043F40033D360704700ED00E010B504462A
:101E8800054BD868C0F30220FFF7C6FF014620467D
:101E9800FFF7AEFF10BD00BF00ED00E00138B0F164
:101EA800807F0BD24FF0E0235861054AF02182F879
:101EB80023100020986107221A617047012070479B
:101EC80000ED00E0034AD2F8883043F47003C2F80A
:101ED8008830704700ED00E0DFF834D0FFF7F2FFFC
:101EE8000C480D490D4A002302E0D458C45004336D
:101EF800C4188C42F9D30A4A0A4C002301E0136043
:101F08000432A242FBD300F019F8FEF744FAFEE7C8
:101F1800008001200000002010000020C0220008DE
:101F280010000020B4000020FEE70244034693425C
:101F380000D1704703F8011BF9E7000070B50D4D9B
:101F48000D4C641BA4100026A64209D10B4D0C4C65
:101F580000F076F9641BA4100026A64205D170BDD6
:101F680055F8043B98470136EEE755F8043B984787
:101F78000136F2E7B0220008B0220008B0220008BB
:101F8800B42200082DE9F047089D0C46002B4ED1DD
:101F980094468C458646B2FA82F262D94AB1C2F1B9
:101FA8002003914020FA03F30CFA02FC194300FACB
:101FB80002FE4FEA1C471FFA8CF6B1FBF7F44FEA12
:101FC8001E4307FB141143EA014304FB06F199423F
:101FD8000AD91CEB030304F1FF3080F01381994206
:101FE80040F21081023C6344591A1FFA8EF3B1FB88
:101FF800F7F007FB101143EA014300FB06F69E4287
:102008000AD91CEB030300F1FF3180F0FD809E42EA
:1020180040F2FA80634402389B1B40EA04400021E6
:102028001DB1D3400022C5E90032BDE8F0878B42DC
:1020380005D90DB1C5E9000100210846F5E7B3FA55
:1020480083F1002946D1A34202D39042C0F0F18027
:10205800861A64EB03030120002DE6D0C5E900636E
:10206800E3E7002A40F09180A1EB0C044FEA1C48FA
:102078001FFA8CF70121B4FBF8F64FEA1E4308FB60
:10208800164443EA044307FB06F0984208D91CEBC0
:10209800030306F1FF3402D2984200F2CE802646AE
:1020A8001C1A1FFA8EF3B4FBF8F008FB104443EA3D
:1020B800044300FB07F79F4208D91CEB030300F118
:1020C800FF3402D29F4200F2B1802046DB1B40EA77
:1020D8000640A5E7C1F120068B4022FA06F71F4308
:1020E80020FA06FC04FA01F343EA0C03F44000FA70
:1020F80001F8380C4FEA1349B4FBF0FE1FFA87FCCD
:1021080000FB1E4449EA04440EFB0CF9A14502FAFF
:1021180001F20AD93C190EF1FF3A80F08580A145F9
:1021280040F28280AEF1020E3C44A4EB09041FFA8F
:1021380083F9B4FBF0F300FB134449EA044403FBBE
:102148000CFCA44507D93C1903F1FF3068D2A4451B
:1021580066D9023B3C4443EA0E40A0FB0293A4EB41
:102168000C049C42CE469C4652D34FD055B1B8EB96
:102178000E0364EB0C0404FA06F6CB40CC401E4375
:10218800C5E900640021BDE8F087C2F1200320FA08
:1021980003F10CFA02FC24FA03F394400C434FEACF
:1021A8001C4800FA02FE1FFA8CF7B3FBF8F008FB94
:1021B8001031230C43EA014300FB07F1994208D987
:1021C8001CEB030300F1FF362CD299422AD90238BE
:1021D80063445B1AA4B2B3FBF8F108FB113344EA79
:1021E800034401FB07F3A34208D91CEB040401F1E3
:1021F800FF3613D2A34211D902396444E41A41EAE2
:10220800004138E70446EFE6084605E7C845ADD281
:10221800B9EB020E63EB070C0138A7E73146EDE78F
:10222800034698E73046D4E7D6467EE7634402384B
:102238004CE70646234608460EE7023E63442FE76E
:10224800F8B500BFF8BC08BC9E467047F8B500BF9B
:08225800F8BC08BC9E4670476B
:10226000A0860100400D0300801A060000350C0016
:1022700040420F0080841E0000093D0000127A00D9
:102280000024F40000366E010048E801006CDC0216
:102290000000000001020304000000000000000034
:0822A00001020304060708090E
:0822A800E4FCFF7F01000000CF
:0822B0002502000800000000F7
:0822B800FD0100080000000018
:1022C000010000001000000000093D0000000000B7
:0400000508001EE1F0
:00000001FF
